:020000040800F2
:100000000000022001190008991800089B18000838
:100010009D1800089F180008A118000800000000A3
:10002000000000000000000000000000A31800080D
:10003000A518000800000000A7180008A91800086B
:1000400051190008511900085119000851190008E8
:100050005119000851190008AD180008511900087D
:1000600051190008511900085119000851190008C8
:1000700051190008511900085119000851190008B8
:1000800051190008511900085119000851190008A8
:100090005119000851190008511900085119000898
:1000A0005119000851190008511900085119000888
:1000B0005119000851190008511900085119000878
:1000C0005119000851190008511900085119000868
:1000D0005119000851190008511900085119000858
:1000E0005119000851190008511900085119000848
:1000F0005119000851190008511900085119000838
:100100005119000851190008511900085119000827
:100110005119000851190008511900085119000817
:100120005119000851190008511900085119000807
:1001300051190008511900085119000851190008F7
:1001400051190008511900085119000851190008E7
:1001500051190008511900085119000851190008D7
:1001600051190008511900085119000851190008C7
:100170005119000851190008511900080000000029
:08018000511900085119000893
:1001880010B5054C237833B9044B13B10448AFF3C9
:1001980000800123237010BD1C0000200000000017
:1001A800C419000808B5034B1BB103490348AFF352
:1001B800008008BD0000000020000020C4190008CD
:1001C80053B94AB9002908BF00281CBF4FF0FF31B6
:1001D8004FF0FF3000F07AB9ADF1080C6DE904CEAC
:1001E80000F006F8DDF804E0DDE9022304B070470A
:1001F8002DE9F0478C460D460446089E002B51D148
:100208008A4217466DD9B2FA82FEBEF1000F0BD0B2
:10021800CEF1200C01FA0EF520FA0CFC02FA0EF7CA
:100228004CEA050C00FA0EF44FEA174A250CBCFB01
:10023800FAF81FFA87F90AFB18CC45EA0C4508FBBF
:1002480009F3AB420AD9ED1908F1FF3280F0238196
:10025800AB4240F22081A8F102083D44ED1AA4B255
:10026800B5FBFAF00AFB105544EA054400FB09F90E
:10027800A14509D9E41900F1FF3380F00A81A145AD
:1002880040F2078102383C44A4EB090440EA0840E4
:100298000021002E61D024FA0EF40023346073602C
:1002A800BDE8F0878B4207D9002E54D0002186E89C
:1002B80021000846BDE8F087B3FA83F1002940F031
:1002C8008E80AB4202D3824200F2FA80841A65EB38
:1002D80003050120AC46002E3FD086E81010BDE88B
:1002E800F08712B90127B7FBF2F7B7FA87FEBEF11C
:1002F800000F34D1EB1B3A0C1FFA87FC0121B3FB2A
:10030800F2F8250C02FB183345EA03450CFB08F309
:10031800AB4207D9ED1908F1FF3002D2AB4200F227
:10032800D1808046ED1AA3B2B5FBF2F002FB10555E
:1003380043EA05440CFB00FCA44507D9E41900F185
:10034800FF3302D2A44500F2B8801846A4EB0C048F
:1003580040EA08409DE731463046BDE8F087CEF1D7
:10036800200405FA0EF307FA0EF720FA04F83A0CFF
:1003780025FA04F448EA0308B4FBF2F14FEA1845F9
:1003880002FB11441FFA87FC45EA044501FB0CF304
:10039800AB4200FA0EF409D9ED1901F1FF3080F0F3
:1003A8008A80AB4240F2878002393D44EB1A1FFA3B
:1003B80088F5B3FBF2F002FB103345EA034500FB76
:1003C8000CF3AB4207D9ED1900F1FF386FD2AB42FD
:1003D8006DD902383D44EB1A40EA01418FE7C1F17B
:1003E800200722FA07F88B4005FA01F448EA0303CC
:1003F80020FA07FE4FEA134CFD404EEA040EB5FB07
:10040800FCF94FEA1E440CFB19551FFA83F844EA1D
:10041800054509FB08F4AC4202FA01F200FA01FAB8
:1004280008D9ED1809F1FF3043D2AC4241D9A9F1FE
:1004380002091D442D1B1FFA8EFEB5FBFCF00CFBB8
:1004480010554EEA054400FB08F8A04507D9E41802
:1004580000F1FF3529D2A04527D902381C4440EACB
:100468000940A4EB0804A0FB02894C45C6464D464A
:1004780015D312D056B1BAEB0E0364EB050404FA97
:1004880007F7CB401F43CC40376074600021BDE8BC
:10049800F0871846F8E69046E0E6C245EAD2B8EB9F
:1004A800020E69EB03050138E4E72846D7E7404622
:1004B80091E78146BEE7014678E702383C4445E7C4
:1004C800084608E7A8F102083D442BE7704700BF3B
:1004D80038B50E4A0E4B054618784FF47A73B3FBBD
:1004E800F0F31068B0FBF3F000F094F8044658B944
:1004F8000F2D09D8024629464FF0FF3000F04AF880
:10050800044B20461D6038BD012038BD180000206E
:10051800000000200400002008B50B4B1A6842F4C4
:1005280000721A601A6842F480621A601A6842F40B
:1005380080721A60032000F01BF80020FFF7C8FF44
:1005480001F050F9002008BD003C0240034A044B6A
:1005580011681B780B441360704700BF9C00002093
:1005680000000020014B1868704700BF9C00002065
:10057800074AD36823F4E0631B041B0C43F0BF63F2
:10058800000243F4003300F4E0600343D360704793
:1005980000ED00E0174B30B5DC68C4F30224C4F169
:1005A8000703251D042B28BF0423062D4FF0010542
:1005B80005FA03F303F1FF338CBF033C0024194011
:1005C800A14005FA04F4013C2240002842EA010255
:1005D8004FEA0212AFBF00F1604000F00F00064B77
:1005E800D2B2A5BF00F56140D2B21A5480F80023F8
:1005F80030BD00BF00ED00E014ED00E0420901232A
:1006080000F01F0003FA00F0014B43F82200704786
:1006180000E100E00138B0F1807F0AD2064B074ABA
:100628005860F02182F823100020072298601A6091
:1006380070470120704700BF10E000E000ED00E0C7
:100648002DE9F04F85B00B68DFF8AC81684ADFF818
:10065800AC91019300234FF0010E019C0EFA03FEAA
:100668000EEA0406B64540F0AE804C6824F0100748
:10067800022F16D14FEAD30A00EB8A0A03F0070BC0
:10068800DAF820504FEA8B0B4FF00F0C0CFA0BFCEA
:1006980025EA0C0C0D6905FA0BF545EA0C05CAF8B4
:1006A80020504FEA430A0325D0F800B005FA0AF5AE
:1006B800ED4304F0030C0BEA050B0CFA0AFC013FAE
:1006C8004CEA0B0C012FC0F800C011D8876807EA64
:1006D800050BCF6807FA0AFC4CEA0B0787604768E6
:1006E80027EA0E0EC4F300179F4047EA0E0747603B
:1006F800C7683D408F6807FA0AF73D43C560E500C3
:1007080061D54FF0000BCDF80CB0D8F84470394DD6
:1007180047F48047C8F84470D8F8447007F4804715
:100728000397039F23F0030707F1804707F59C37DA
:1007380003F0030CD7F808A04FEA8C0C4FF00F0E0B
:100748000EFA0CFEA8422AEA0E0E43D005F5806583
:10075800A84241D005F58065A8423FD005F58065DF
:10076800A8423DD005F58065A8423BD048453BD01E
:1007780005F50065A84239D005F58065A84214BF83
:100788000825072505FA0CF545EA0E05BD6015682C
:10079800F74314F4803F0CBF3D403543156055685E
:1007A80014F4003F0CBF3D4035435560956814F480
:1007B800801F0CBF3D4035439560D568A40254BFE7
:1007C8003D403543D5600133102B7FF444AF05B06D
:1007D800BDE8F08F5D46D5E70125D3E70225D1E7CF
:1007E8000325CFE70425CDE70525CBE70625C9E78F
:1007F800003C014000000240003802400014024062
:100808000AB1816170470904FBE7436959404161B6
:100818007047704708B5044B5969014202D05861C6
:10082800FFF7F7FF08BD00BF003C01402DE9F34189
:10083800044618B9012002B0BDE8F0810368DD075D
:1008480010D42368980758D423681A0700F19A80AF
:1008580023685B0700F1B880A269002A40F019817B
:100868000020E8E7A64B9A6802F00C02042A07D099
:100878009A6802F00C02082A0AD15B68590207D567
:100888009F4B1B689A03DCD56368002BD9D1D1E74D
:1008980063689B4DB3F5803F11D12B6843F48033D7
:1008A8002B60FFF75FFE964D06462B689B03C8D466
:1008B800FFF758FE801B6428F7D90320BBE7B3F580
:1008C800A02F04D12B6843F480232B60E5E72A6826
:1008D80022F480322A602A6822F480222A60002BBF
:1008E800DFD1FFF73FFE06462B689F03A9D5FFF728
:1008F80039FE801B6428F7D9DFE7814B9A6812F02C
:100908000C0F07D09A6802F00C02082A11D15B6814
:100918005E020ED47A4B1A68950702D5E268012A5E
:1009280088D11A68216922F0F80242EAC1021A60E5
:100938008AE7E268734BB2B101221A60FFF712FE30
:100948006F4D06462B68980707D52B68226923F058
:10095800F80343EAC2032B6076E7FFF703FE801B28
:100968000228EFD9A9E71A60FFF7FCFD644D064697
:100978002B6899077FF568AFFFF7F4FD801B022805
:10098800F6D99AE76269604B7AB101221A60FFF7DB
:10099800E9FD5B4D06466B6F9F073FF559AFFFF7C3
:1009A800E1FD801B0228F6D987E71A60FFF7DAFD18
:1009B800534D06466B6F98077FF54AAFFFF7D2FD98
:1009C800801B0228F6D978E74D4B1A6C12F080523A
:1009D80028D101921A6C42F080521A641B6C03F001
:1009E80080530193019B0126484D2B68D9051BD5DF
:1009F800A368434D012B27D12B6F43F001032B67CD
:100A0800FFF7B0FD3E4D074641F288382B6F9B0734
:100A180039D5002E3FF420AF394A136C23F08053A8
:100A2800136419E70026DFE72B6843F480732B6013
:100A3800FFF798FD07462B68DA05D9D4FFF792FD32
:100A4800C01B0228F7D938E7052B04D12B6F43F0D8
:100A580004032B67D0E72A6F22F001022A672A6F66
:100A680022F004022A67002BCAD1FFF77BFD41F26E
:100A7800883807462B6F9807CBD5FFF773FDC01B47
:100A88004045F7D919E7FFF76DFDC01B4045BDD9B3
:100A980013E71B4DAB6803F00C03082B3FF4CAAEF9
:100AA8001B4E0023022A336034D1FFF75BFD074653
:100AB8002B6899011ED4226AE3691343626A43EAE8
:100AC8008213E26A43EA0263A26A0D4C5208013AB1
:100AD80043EA02436B6001233360FFF743FD054699
:100AE80023689A013FF5BCAEFFF73CFD401B022886
:100AF800F6D9E2E6FFF736FDC01B0228D8D9DCE6B6
:100B08000038024000004742800E47420070004013
:100B180060004742FFF726FD04462B689B017FF5DE
:100B28009FAEFFF71FFD001B0228F6D9C5E600BFE0
:100B3800134908B58B6803F00C03042B03D0082B6A
:100B480003D0104808BD104808BD4A684B6849687A
:100B580013F4800314BF0C480A48C1F3881118BF66
:100B6800002302F03F02A1FB0001FFF729FB044B21
:100B78005B68C3F3014301335B00B0FBF3F008BDCE
:100B8800003802400024F40000127A002DE9F041F8
:100B98000D46044610B90120BDE8F081444B1A689F
:100BA80002F00F028A4228D321688F072DD4C80784
:100BB80040D43F4B1A6802F00F02954266D3226870
:100BC80051076CD4130707D53A4A2169936823F46F
:100BD800604343EAC1039360FFF7AAFF354B364AE7
:100BE8009B68C3F30313D35CD840344B18600020D0
:100BF800FFF76EFC0020BDE8F081CAB21A701B68CE
:100C080003F00F039942C6D1CEE72A4B11F0040F27
:100C18001EBF9A6842F4E0529A600E0742BF9A6873
:100C280042F460429A609A68A06822F0F002024397
:100C38009A60BCE762681F4B012A1DD11B6813F438
:100C4800003FA8D01B4EB36823F003031343B360DF
:100C5800FFF788FC41F288380746B368626803F0FA
:100C68000C03B3EB820FA4D0FFF77CFCC01B4045FC
:100C7800F3D90320BDE8F081911E01291B6802D831
:100C880013F0007FDDE713F0020FDAE7EAB21A701B
:100C98001B6803F00F039D427FF47DAF8FE7054982
:100CA800E0688B6823F4E05303438B608AE700BF56
:100CB800003C024000380240DC19000818000020FF
:100CC8002DE9F041069E0446884617461D462268CF
:100CD800936838EA03030CBF012300239F4202D123
:100CE8000020BDE8F0816B1CF2D055BB23685A6820
:100CF80022F0E0025A606268B2F5827F0AD1A268E7
:100D0800B2F5004F02D0B2F5806F03D11A6822F015
:100D180040021A60A26AB2F5005F09D11A6822F48B
:100D280000521204120C1A601A6842F400521A6037
:100D3800012384F85130002384F850300320BDE8A3
:100D4800F081FFF70FFC801B8542C0D8CEE713B5B2
:100D58000B460092802100220446FFF7B1FF20B124
:100D6800636D43F020036365032002B010BD10B526
:100D78000446002836D00023836290F8513003F0EF
:100D8800FF021BB980F8502000F04CFD2168A068D4
:100D9800A269022384F851300B6823F040030B60EA
:100DA80063680343E06803432069034360690343BE
:100DB800E0690343206A0343A06A034302F4007016
:100DC80003430B60120C636A02F004021A434A6080
:100DD800CB6923F40063CB6100200123606584F8AC
:100DE800513010BD012010BD2DE9FF411E4690F87D
:100DF8005030012B04460D46904600F09C8001239C
:100E080080F85030FFF7AEFB074694F85100C0B2A7
:100E1800012840F08E80002D4ED0B8F1000F4BD045
:100E2800032384F8513000236365A363A4F8368054
:100E3800A387E38763642364A3682563B3F5004F3E
:100E48002368A4F8348002BF1A6842F480421A600A
:100E58001A6852065EBF1A6842F040021A60E268D9
:100E6800B2F5006F626838D11AB1E28E92B2012AE7
:100E780006D135F8022BDA60E38E013B9BB2E3869C
:100E8800E38E9BB293B90097334601220221204694
:100E9800FFF716FF78B93A4631462046FFF757FF65
:100EA800002838D020236365012005E023689A686C
:100EB8009007DED44EB90320012384F85130002373
:100EC80084F8503004B0BDE8F081711CD8D0FFF729
:100ED80049FBC01B8642D3D8EDE71AB1E28E92B225
:100EE800012A06D115F8012B1A73E38E013B9BB238
:100EF800E386E38E9BB2002BC5D023689A689207DD
:100F0800F0D4002ED7D0731CF3D0FFF72BFBC01BF7
:100F18008642EED8CFE7A36833B903932368DA682B
:100F280003929B680393039B606D003018BF0120F8
:100F3800C2E70220C0E70220C4E72DE9F043994642
:100F480090F8503085B0012B04460D4616460C9F8C
:100F580000F0ED80012380F85030FFF703FB94F890
:100F680051306168DBB2012B80460AD0B1F5827F2F
:100F780040F0DB80A268002A40F0D780042B40F0C4
:100F8800D480002D4ED0002E4CD0B9F1000F49D09E
:100F980094F85130A663012B04BF052384F851301F
:100FA80000236365236463642368A4F83E90A4F86F
:100FB80036901A68A4F83C90500658BF1A68256302
:100FC80058BF42F04002A4F8349058BF1A60E26853
:100FD800B2F5006F5DD119B1E28E92B2012A06D145
:100FE80035F8022BDA60E38E013B9BB2E3864FF0C3
:100FF8000109E38E9BB2BBB9E38F9BB2A3B9CDF8CD
:1010080000803B46012202212046FFF759FE0028B6
:1010180035D1424639462046FFF799FE002879D057
:101028002023636501202BE0B9F1000F0FD0E38E78
:101038009BB263B123689A68910708D535F8022BEB
:10104800DA60E38E013B9BB2E3864FF00009E38F41
:101058009BB263B123689A68D20708D5DB6826F883
:10106800023BE38F013B9BB2E3874FF00109781CF9
:10107800BFD0FFF777FAA0EB08008742B9D8032062
:10108800012384F85130002384F8503005B0BDE8BE
:10109800F08319B1E28E92B2012A06D115F8012B1C
:1010A8001A73E38E013B9BB2E3864FF00109E38E8E
:1010B8009BB21BB9E38F9BB2002BA0D0B9F1000FF4
:1010C8000FD0E38E9BB263B123689A68910708D565
:1010D8002A781A73E38E013B9BB2E38601354FF001
:1010E8000009E38F9BB263B123689A68D20708D5D9
:1010F800DB683370E38F013B9BB2E38701364FF027
:1011080001097B1CD3D0FFF72DFAA0EB080087421A
:10111800CDD8B4E7A368002BB2D123680390DA686E
:1011280003929B680393039BAAE70220A8E7022087
:10113800ACE72DE9F3411E464368B3F5827F0446C8
:101148000D4690460CD1836853B9042380F851307A
:10115800134600960A46FFF7F0FE02B0BDE8F0819C
:1011680094F85030012B00F08180012384F850302E
:10117800FFF7F8F9074694F85100C0B2012873D177
:10118800002D58D0B8F1000F55D0042384F8513001
:10119800002363652363A4F83E80A386E386236463
:1011A8006364A368A563B3F5004F2368A4F83C8083
:1011B80002BF1A6822F480421A601A6852065EBF9B
:1011C8001A6842F040021A60E368CBB1E38F9BB221
:1011D800D3B123689A68D2073CD5DB6825F8023B6F
:1011E800E38F013B9BB2E387F0E723689A68D00757
:1011F8001FD51B7B05F8013BE38F013B9BB2E387BF
:10120800E38F9BB2002BF0D16368B3F5827F0BD1DB
:10121800A368B3F5004F02D0B3F5806F04D12268FC
:10122800136823F040031360606D003018BF01207D
:1012380001E03EB90320012384F85130002384F8EB
:1012480050308AE7711CDBD0FFF78CF9C01B86424F
:10125800D6D8EFE7002EEDD0731CB7D0FFF782F990
:10126800C01B8642B2D8E5E70220E4E7022074E713
:101278002DE9F34102AC0F4D04F8010D0E4E0F4657
:101288009046284600220821FFF7BAFA21460A2389
:1012980001223046FFF7A8FD0A2342463946304668
:1012A800FFF7A2FD012208212846FFF7A9FA02B09C
:1012B800BDE8F081001002404400002073B502AD83
:1012C80060F07F0005F8040D1446134800220E460E
:1012D8000821FFF795FA0A23012229460F48FFF74C
:1012E80083FD0A23224629460C48FFF722FF0122E4
:1012F80008210948FFF784FA04F003040023DAB24E
:10130800A24203F1010301DB02B070BD02A911443E
:1013180011F8041CB154F2E7001002404400002008
:1013280037B50C4658220146234800F033FBE378D2
:10133800227802AD22F00F0203F00703134305F8E9
:10134800013D012229462020FFF792FFA378627809
:1013580023F03F0302F038021343294601222420D8
:101368008DF80730FFF784FF23793BB188230122EA
:10137800294623208DF80730FFF77AFF6378102B72
:1013880016D009D873B1082B10D0012208210B48B8
:10139800FFF736FA03B030BD182B0BD0202BF4D151
:1013A800074A00E0074A084B1A60EEE7074AFAE7DF
:1013B800074AF8E7074AF6E7440000200010024011
:1013C80048E13A3F8FC2753D140000208FC2F53DB9
:1013D800EC51383E8FC2753E73B50222064601A90C
:1013E8002820FFF76BFF9DF805309DF8045001A9F0
:1013F80002222A2005EB0325FFF760FF9DF8053040
:101408009DF80440022201A92C2004EB0324FFF7D5
:1014180055FF9DF805209DF804302DB224B203EB4A
:101428000223304635807480B38002B070BD00005E
:1014380000B58BB005A8FFF7CFFF214B9FED210A20
:10144800D3ED006ABDF9163007EE103A1E4BB8EE20
:10145800C77AD3ED007A1D4B27EE267A93ED006A02
:10146800BDF91830F0EE400AE7EE270A07EE103A09
:10147800174BB8EEC77AD3ED007A164B27EE267ACB
:10148800B0EE401AA7EE271A93ED007ABDF9143092
:1014980007EE903A104BF8EEE77A70EEC60A67EE60
:1014A800A67AD3ED006A0D4BA7EEA60AD3ED007A13
:1014B80031EE471A30EE670A0BB05DF804FB00BF47
:1014C80014000020000000000C0000203C00002058
:1014D80010000020400000200800002038000020F4
:1014E80037B50446FFF73EF8054601220DF107011E
:1014F8002720FFF7E3FE9DF807305B0704D1FFF7CD
:1015080031F8401BA042F0D39DF8070010F0070007
:1015180018BF012003B030BD30B595B0302200218E
:1015280008A800F042FA0021142203A800F03DFAAE
:1015380000241C4B01941A6C42F080521A641B6CF4
:1015480003F080530193019B174B02941A6842F4ED
:1015580080421A601B680F9403F480430293029B35
:1015680001230B9310230C93082310933223119318
:1015780004230225129308A80723139308950E95B0
:10158800FFF754F90F2303934FF4A0530693214612
:101598004FF4805303A8049505940793FFF7F6FAD0
:1015A80015B030BD003802400070004000B589B069
:1015B800FEF7B2FFFFF7B0FF1422002103A80024B2
:1015C80000F0F3F97A4B00941A6B7A4842F0100253
:1015D8001A631A6B02F010020092009A01941A6BB7
:1015E80042F001021A631A6B02F001020192019A99
:1015F80002941A6B42F008021A631B6B03F008038B
:10160800224602930821029BFFF7FAF822464FF47C
:1016180070416948FFF7F4F80125082603A96548D1
:101628000396049505940694FFF70AF803A96348FE
:10163800039504940594FFF703F84FF4704303A946
:101648005D480393049505940694FEF7F9FF5C4BF7
:101658005848049303A903950594FEF7F1FF214622
:1016680022460620FEF796FF0620FEF7C7FF554DD7
:10167800554AAC604FF4827385E80C004FF4007350
:10168800AB611023EB6128460A23EC602C616C6186
:101698002C626C62AC62EB62FFF769FB30238DF859
:1016A8000C30C0238DF80E302846072303A98DF887
:1016B8000D608DF810408DF80F30444D3E4CFFF70B
:1016C8002FFE2E464FF47A70FFF70AFF0028F9D054
:1016D800FFF7AEFE4FF48051204685ED000AC5EDB8
:1016E800010A85ED021AFFF790F895ED027ADFED11
:1016F800387AB4EEE77AF1EE10FA17DD00224FF4EB
:1017080080512046FFF77CF800224FF40051204614
:10171800FFF776F800224FF480412046FFF770F873
:1017280000224FF400412046FFF76AF896ED007A50
:10173800DFED287AB4EEE77AF1EE10FACCBF012299
:10174800002220464FF48041FFF75AF896ED007AC0
:10175800DFED217AB4EEE77AF1EE10FA4CBF012200
:10176800002220464FF48051FFF74AF896ED017A9F
:10177800DFED1A7AB4EEE77AF1EE10FACCBF012267
:10178800002220464FF40051FFF73AF896ED017A0F
:10179800DFED137AB4EEE77AF1EE10FA4CBF0122CE
:1017A80000224FF400412046FFF72AF88AE700BFDD
:1017B8000038024000100240000C024000000240C5
:1017C80000001110AC00002000300140A0000020F3
:1017D80000007A4400800944008009C40000AF4337
:1017E8000000AFC307B50E4B002100915A6C42F4BC
:1017F80080425A645A6C02F480420092009A019125
:101808001A6C42F080521A641B6C03F080530193E7
:101818000720019BFEF7ACFE03B05DF804FB00BF98
:101828000038024010B5044688B01422002103A8ED
:1018380000F0BBF82268144B9A4222D103F5843396
:10184800002101915A6C114842F480525A645A6C32
:1018580002F480520192019A02911A6B42F001023D
:101868001A631B6B03F001030293029BE0230393AB
:10187800022304930323069303A905230793FEF782
:10188800DFFE08B010BD00BF00300140000002407C
:101898007047FEE7FEE7FEE7FEE7704770477047D0
:1018A800FEF754BE0120FEF7B5BF00000F49D1F87E
:1018B800883043F47003C1F888300D4B1A68002053
:1018C80042F001021A6098601A6822F0847222F4C9
:1018D80080321A60074A5A601A6822F480221A6015
:1018E800D8604FF000638B60704700BF00ED00E0E8
:1018F8000038024010300024DFF834D0002103E023
:101908000C4B5B58435004310B480C4B42189A421D
:10191800F6D30B4A02E0002342F8043B094B9A42F3
:10192800F9D3FFF7C3FF00F011F8FFF73FFE704748
:1019380000000220FC190008000000201C00002004
:101948001C00002004010020FEE7000070B50D4EC9
:101958000D4CA41BA4100025A54209D10B4E0C4C1C
:1019680000F02CF8A41BA4100025A54205D170BDD9
:1019780056F8253098470135EEE756F82530984750
:101988000135F2E7F4190008F4190008F419000801
:10199800F819000810B5431E0A44914200D110BD41
:1019A80011F8014B03F8014FF7E70244034693424D
:1019B80000D1704703F8011BF9E70000F8B500BF34
:1019C800F8BC08BC9E467047F8B500BFF8BC08BC18
:0419D8009E46704770
:1019DC0000000000000000000102030406070809D3
:0819EC000CE8FF7F0100000080
:0419F400AD01000839
:0419F8008901000859
:1019FC0001000000100000000000803F0000803F4C
:0C1A0C000000803F8FC2753D0024F400F4
:0400000508001901D5
:00000001FF
