:020000040800F2
:1000000000000220AD2000082D2000082F2000084D
:1000100031200008332000083520000800000000CF
:100020000000000000000000000000003720000871
:1000300039200008000000003B2000083D20000897
:10004000FD200008FD200008FD200008FD2000081C
:10005000FD200008FD20000841200008FD200008C8
:10006000FD200008FD200008FD200008FD200008FC
:10007000FD200008FD200008FD200008FD200008EC
:10008000FD200008FD200008FD200008FD200008DC
:10009000FD200008FD200008FD200008FD200008CC
:1000A000FD200008FD200008FD200008FD200008BC
:1000B000FD200008FD200008FD200008FD200008AC
:1000C000FD200008FD200008FD200008FD2000089C
:1000D000FD200008FD2000084920000855200008E8
:1000E000FD200008FD200008FD200008FD2000087C
:1000F000FD200008FD200008FD200008FD2000086C
:10010000FD200008FD200008FD200008FD2000085B
:10011000FD200008FD200008FD200008FD2000084B
:10012000FD200008FD200008FD200008FD2000083B
:10013000FD200008FD200008FD200008FD2000082B
:10014000FD200008FD200008FD200008FD2000081B
:10015000FD200008FD200008FD200008FD2000080B
:10016000FD200008FD200008FD200008FD200008FB
:10017000FD200008FD200008FD2000080000000010
:08018000FD200008FD2000082D
:1001900010B5054C237833B9044B13B10448AFF3C1
:1001A00000800123237010BD8000002000000000AB
:1001B000CC29000808B5034B1BB103490348AFF332
:1001C000008008BD0000000084000020CC29000849
:1001D000034613F8012B002AFBD1181A0138704787
:1001E00001F0FF01102A2BDB10F0070F08D010F8E8
:1001F000013B013A8B422DD010F0070F42B3F6D1EC
:10020000F0B441EA012141EA014122F007047FF004
:1002100000070023F0E80256083C85EA010586EA5B
:10022000010685FA47F5A3FA87F586FA47F6A5FA97
:1002300087F68EB9EED1F0BC01F0FF0102F00702A3
:1002400032B110F8013B013A83EA010313B1F8D14E
:100250000020704701387047002D06BF354603382F
:10026000073815F0010F07D1013015F4807F02BF68
:10027000013015F4C03F0130F0BC0138704700BFB9
:1002800053B94AB9002908BF00281CBF4FF0FF31FD
:100290004FF0FF3000F07AB9ADF1080C6DE904CEF3
:1002A00000F006F8DDF804E0DDE9022304B0704751
:1002B0002DE9F0478C460D460446089E002B51D18F
:1002C0008A4217466DD9B2FA82FEBEF1000F0BD0FA
:1002D000CEF1200C01FA0EF520FA0CFC02FA0EF712
:1002E0004CEA050C00FA0EF44FEA174A250CBCFB49
:1002F000FAF81FFA87F90AFB18CC45EA0C4508FB07
:1003000009F3AB420AD9ED1908F1FF3280F02381DD
:10031000AB4240F22081A8F102083D44ED1AA4B29C
:10032000B5FBFAF00AFB105544EA054400FB09F955
:10033000A14509D9E41900F1FF3380F00A81A145F4
:1003400040F2078102383C44A4EB090440EA08402B
:100350000021002E61D024FA0EF400233460736073
:10036000BDE8F0878B4207D9002E54D0002186E8E3
:1003700021000846BDE8F087B3FA83F1002940F078
:100380008E80AB4202D3824200F2FA80841A65EB7F
:1003900003050120AC46002E3FD086E81010BDE8D2
:1003A000F08712B90127B7FBF2F7B7FA87FEBEF163
:1003B000000F34D1EB1B3A0C1FFA87FC0121B3FB71
:1003C000F2F8250C02FB183345EA03450CFB08F351
:1003D000AB4207D9ED1908F1FF3002D2AB4200F26F
:1003E000D1808046ED1AA3B2B5FBF2F002FB1055A6
:1003F00043EA05440CFB00FCA44507D9E41900F1CD
:10040000FF3302D2A44500F2B8801846A4EB0C04D6
:1004100040EA08409DE731463046BDE8F087CEF11E
:10042000200405FA0EF307FA0EF720FA04F83A0C46
:1004300025FA04F448EA0308B4FBF2F14FEA184540
:1004400002FB11441FFA87FC45EA044501FB0CF34B
:10045000AB4200FA0EF409D9ED1901F1FF3080F03A
:100460008A80AB4240F2878002393D44EB1A1FFA82
:1004700088F5B3FBF2F002FB103345EA034500FBBD
:100480000CF3AB4207D9ED1900F1FF386FD2AB4244
:100490006DD902383D44EB1A40EA01418FE7C1F1C2
:1004A000200722FA07F88B4005FA01F448EA030313
:1004B00020FA07FE4FEA134CFD404EEA040EB5FB4E
:1004C000FCF94FEA1E440CFB19551FFA83F844EA65
:1004D000054509FB08F4AC4202FA01F200FA01FA00
:1004E00008D9ED1809F1FF3043D2AC4241D9A9F146
:1004F00002091D442D1B1FFA8EFEB5FBFCF00CFB00
:1005000010554EEA054400FB08F8A04507D9E41849
:1005100000F1FF3529D2A04527D902381C4440EA12
:100520000940A4EB0804A0FB02894C45C6464D4691
:1005300015D312D056B1BAEB0E0364EB050404FADE
:1005400007F7CB401F43CC40376074600021BDE803
:10055000F0871846F8E69046E0E6C245EAD2B8EBE6
:10056000020E69EB03050138E4E72846D7E7404669
:1005700091E78146BEE7014678E702383C4445E70B
:10058000084608E7A8F102083D442BE7704700BF82
:1005900038B50E4A0E4B054618784FF47A73B3FB04
:1005A000F0F31068B0FBF3F000F0A8F8044658B977
:1005B0000F2D09D8024629464FF0FF3000F05EF8B3
:1005C000044B20461D6038BD012038BD18000020B6
:1005D000000000200400002008B50B4B1A6842F40C
:1005E00000721A601A6842F480621A601A6842F453
:1005F00080721A60032000F02FF80020FFF7C8FF78
:1006000001F04AFC002008BD003C0240034A044BB4
:1006100011681B780B441360704700BF0C01002069
:1006200000000020014B1868704700BF0C0100203B
:1006300038B50446FFF7F6FF631C1CBF054B1B785B
:10064000054618BFE418FFF7EDFF401B8442FAD8B7
:1006500038BD00BF00000020074AD36823F4E063E0
:100660001B041B0C43F0BF63000243F4003300F48F
:10067000E0600343D360704700ED00E0174B30B5F6
:10068000DC68C4F30224C4F10703251D042B28BF32
:100690000423062D4FF0010505FA03F303F1FF33A0
:1006A0008CBF033C00241940A14005FA04F4013C2E
:1006B0002240002842EA01024FEA0212AFBF00F1D5
:1006C000604000F00F00064BD2B2A5BF00F56140BC
:1006D000D2B21A5480F8002330BD00BF00ED00E014
:1006E00014ED00E04209012300F01F0003FA00F0BE
:1006F000014B43F82200704700E100E00138B0F1FF
:10070000807F0AD2064B074A5860F02182F82310F6
:100710000020072298601A6070470120704700BFD0
:1007200010E000E000ED00E090F83530022B03D03F
:1007300080234365012070470268052380F8353027
:10074000136823F001031360002070472DE9F04F78
:1007500085B00B68DFF8AC81684ADFF8AC91019393
:1007600000234FF0010E019C0EFA03FE0EEA040670
:10077000B64540F0AE804C6824F01007022F16D129
:100780004FEAD30A00EB8A0A03F0070BDAF820508D
:100790004FEA8B0B4FF00F0C0CFA0BFC25EA0C0CFC
:1007A0000D6905FA0BF545EA0C05CAF820504FEA29
:1007B000430A0325D0F800B005FA0AF5ED4304F02A
:1007C000030C0BEA050B0CFA0AFC013F4CEA0B0C7C
:1007D000012FC0F800C011D8876807EA050BCF6861
:1007E00007FA0AFC4CEA0B078760476827EA0E0EF7
:1007F000C4F300179F4047EA0E074760C7683D40B3
:100800008F6807FA0AF73D43C560E50061D54FF0F0
:10081000000BCDF80CB0D8F84470394D47F4804740
:10082000C8F84470D8F8447007F480470397039FD2
:1008300023F0030707F1804707F59C3703F0030C0B
:10084000D7F808A04FEA8C0C4FF00F0E0EFA0CFEF2
:10085000A8422AEA0E0E43D005F58065A84241D091
:1008600005F58065A8423FD005F58065A8423DD0DA
:1008700005F58065A8423BD048453BD005F50065AD
:10088000A84239D005F58065A84214BF0825072580
:1008900005FA0CF545EA0E05BD601568F74314F43A
:1008A000803F0CBF3D4035431560556814F4003F50
:1008B0000CBF3D4035435560956814F4801F0CBF54
:1008C0003D4035439560D568A40254BF3D40354353
:1008D000D5600133102B7FF444AF05B0BDE8F08F35
:1008E0005D46D5E70125D3E70225D1E70325CFE70C
:1008F0000425CDE70525CBE70625C9E7003C0140E7
:100900000000024000380240001402400AB1816138
:1009100070470904FBE7704708B5044B5969014269
:1009200002D05861FFF7F7FF08BD00BF003C01404F
:100930002DE9F341044618B9012002B0BDE8F08169
:100940000368DD0710D42368980758D423681A0772
:1009500000F19A8023685B0700F1B880A269002A41
:1009600040F019810020E8E7A64B9A6802F00C02DB
:10097000042A07D09A6802F00C02082A0AD15B68A0
:10098000590207D59F4B1B689A03DCD56368002B7F
:10099000D9D1D1E763689B4DB3F5803F11D12B6866
:1009A00043F480332B60FFF73DFE964D06462B68DF
:1009B0009B03C8D4FFF736FE801B6428F7D90320B9
:1009C000BBE7B3F5A02F04D12B6843F480232B6041
:1009D000E5E72A6822F480322A602A6822F480221D
:1009E0002A60002BDFD1FFF71DFE06462B689F0310
:1009F000A9D5FFF717FE801B6428F7D9DFE7814BE5
:100A00009A6812F00C0F07D09A6802F00C02082ABC
:100A100011D15B685E020ED47A4B1A68950702D535
:100A2000E268012A88D11A68216922F0F80242EAB4
:100A3000C1021A608AE7E268734BB2B101221A6000
:100A4000FFF7F0FD6F4D06462B68980707D52B681A
:100A5000226923F0F80343EAC2032B6076E7FFF72D
:100A6000E1FD801B0228EFD9A9E71A60FFF7DAFD44
:100A7000644D06462B6899077FF568AFFFF7D2FDF6
:100A8000801B0228F6D99AE76269604B7AB101228D
:100A90001A60FFF7C7FD5B4D06466B6F9F073FF57A
:100AA00059AFFFF7BFFD801B0228F6D987E71A6010
:100AB000FFF7B8FD534D06466B6F98077FF54AAFB9
:100AC000FFF7B0FD801B0228F6D978E74D4B1A6C72
:100AD00012F0805228D101921A6C42F080521A64AE
:100AE0001B6C03F080530193019B0126484D2B683A
:100AF000D9051BD5A368434D012B27D12B6F43F09C
:100B000001032B67FFF78EFD3E4D074641F2883803
:100B10002B6F9B0739D5002E3FF420AF394A136C59
:100B200023F08053136419E70026DFE72B6843F4B2
:100B300080732B60FFF776FD07462B68DA05D9D462
:100B4000FFF770FDC01B0228F7D938E7052B04D149
:100B50002B6F43F004032B67D0E72A6F22F00102CA
:100B60002A672A6F22F004022A67002BCAD1FFF7F6
:100B700059FD41F2883807462B6F9807CBD5FFF710
:100B800051FDC01B4045F7D919E7FFF74BFDC01BCE
:100B90004045BDD913E71B4DAB6803F00C03082B90
:100BA0003FF4CAAE1B4E0023022A336034D1FFF754
:100BB00039FD07462B6899011ED4226AE369134365
:100BC000626A43EA8213E26A43EA0263A26A0D4C54
:100BD0005208013A43EA02436B6001233360FFF796
:100BE00021FD054623689A013FF5BCAEFFF71AFDCB
:100BF000401B0228F6D9E2E6FFF714FDC01B0228CD
:100C0000D8D9DCE60038024000004742800E474257
:100C10000070004060004742FFF704FD04462B6867
:100C20009B017FF59FAEFFF7FDFC001B0228F6D964
:100C3000C5E600BF134908B58B6803F00C03042B0D
:100C400003D0082B03D0104808BD104808BD4A68DF
:100C50004B68496813F4800314BF0C480A48C1F379
:100C6000881118BF002302F03F02A1FB0001FFF72B
:100C700007FB044B5B68C3F3014301335B00B0FB2C
:100C8000F3F008BD003802400024F40000127A009E
:100C90002DE9F0410D46044610B90120BDE8F08170
:100CA000444B1A6802F00F028A4228D321688F074A
:100CB0002DD4C80740D43F4B1A6802F00F0295426A
:100CC00066D3226851076CD4130707D53A4A2169C5
:100CD000936823F4604343EAC1039360FFF7AAFFDC
:100CE000354B364A9B68C3F30313D35CD840344B6F
:100CF00018600020FFF74CFC0020BDE8F081CAB26C
:100D00001A701B6803F00F039942C6D1CEE72A4B35
:100D100011F0040F1EBF9A6842F4E0529A600E0769
:100D200042BF9A6842F460429A609A68A06822F0D2
:100D3000F00202439A60BCE762681F4B012A1DD192
:100D40001B6813F4003FA8D01B4EB36823F00303C5
:100D50001343B360FFF766FC41F288380746B36877
:100D6000626803F00C03B3EB820FA4D0FFF75AFCC8
:100D7000C01B4045F3D90320BDE8F081911E012935
:100D80001B6802D813F0007FDDE713F0020FDAE7EB
:100D9000EAB21A701B6803F00F039D427FF47DAF27
:100DA0008FE70549E0688B6823F4E05303438B60C9
:100DB0008AE700BF003C024000380240E9290008F1
:100DC00018000020044B054A9B68C3F38223D35CC0
:100DD000034A1068D840704700380240F9290008DB
:100DE00018000020044B054A9B68C3F34233D35CD0
:100DF000034A1068D840704700380240F9290008BB
:100E0000180000202DE9F041069E0446884617464A
:100E10001D462268936838EA03030CBF01230023B0
:100E20009F4202D10020BDE8F0816B1CF2D055BB7F
:100E300023685A6822F0E0025A606268B2F5827F45
:100E40000AD1A268B2F5004F02D0B2F5806F03D18B
:100E50001A6822F040021A60A26AB2F5005F09D156
:100E60001A6822F400521204120C1A601A6842F432
:100E700000521A60012384F85130002384F8503066
:100E80000320BDE8F081FFF7CDFB801B8542C0D871
:100E9000CEE713B50B460092802100220446FFF7EF
:100EA000B1FF20B1636D43F020036365032002B0FE
:100EB00010BD10B50446002836D00023836290F898
:100EC000513003F0FF021BB980F8502001F004F804
:100ED0002168A068A269022384F851300B6823F0CE
:100EE00040030B6063680343E068034320690343E6
:100EF00060690343E0690343206A0343A06A034334
:100F000002F4007003430B60120C636A02F00402E7
:100F10001A434A60CB6923F40063CB6100200123AC
:100F2000606584F8513010BD012010BD2DE9FF41EE
:100F30001E4690F85030012B04460D46904600F0B6
:100F40009C80012380F85030FFF76CFB074694F833
:100F50005100C0B2012840F08E80002D4ED0B8F173
:100F6000000F4BD0032384F8513000236365A36343
:100F7000A4F83680A387E38763642364A3682563AA
:100F8000B3F5004F2368A4F8348002BF1A6842F416
:100F900080421A601A6852065EBF1A6842F0400228
:100FA0001A60E268B2F5006F626838D11AB1E28E59
:100FB00092B2012A06D135F8022BDA60E38E013BAA
:100FC0009BB2E386E38E9BB293B90097334601222E
:100FD00002212046FFF716FF78B93A4631462046EF
:100FE000FFF757FF002838D020236365012005E074
:100FF00023689A689007DED44EB90320012384F851
:101000005130002384F8503004B0BDE8F081711CE9
:10101000D8D0FFF707FBC01B8642D3D8EDE71AB143
:10102000E28E92B2012A06D115F8012B1A73E38ED3
:10103000013B9BB2E386E38E9BB2002BC5D02368B5
:101040009A689207F0D4002ED7D0731CF3D0FFF724
:10105000E9FAC01B8642EED8CFE7A36833B9039301
:101060002368DA6803929B680393039B606D0030EA
:1010700018BF0120C2E70220C0E70220C4E72DE923
:10108000F043994690F8503085B0012B04460D4648
:1010900016460C9F00F0ED80012380F85030FFF7DA
:1010A000C1FA94F851306168DBB2012B80460AD056
:1010B000B1F5827F40F0DB80A268002A40F0D78043
:1010C000042B40F0D480002D4ED0002E4CD0B9F12E
:1010D000000F49D094F85130A663012B04BF0523BB
:1010E00084F8513000236365236463642368A4F8A3
:1010F0003E90A4F836901A68A4F83C90500658BF69
:101100001A68256358BF42F04002A4F8349058BFD3
:101110001A60E268B2F5006F5DD119B1E28E92B249
:10112000012A06D135F8022BDA60E38E013B9BB22F
:10113000E3864FF00109E38E9BB2BBB9E38F9BB20C
:10114000A3B9CDF800803B46012202212046FFF7DB
:1011500059FE002835D1424639462046FFF799FE10
:10116000002879D02023636501202BE0B9F1000F1E
:101170000FD0E38E9BB263B123689A68910708D5BC
:1011800035F8022BDA60E38E013B9BB2E3864FF029
:101190000009E38F9BB263B123689A68D20708D530
:1011A000DB6826F8023BE38F013B9BB2E3874FF0FD
:1011B0000109781CBFD0FFF735FAA0EB0800874281
:1011C000B9D80320012384F85130002384F850302B
:1011D00005B0BDE8F08319B1E28E92B2012A06D1C2
:1011E00015F8012B1A73E38E013B9BB2E3864FF097
:1011F0000109E38E9BB21BB9E38F9BB2002BA0D0F9
:10120000B9F1000F0FD0E38E9BB263B123689A68E7
:10121000910708D52A781A73E38E013B9BB2E386C7
:1012200001354FF00009E38F9BB263B123689A68E0
:10123000D20708D5DB683370E38F013B9BB2E387AD
:1012400001364FF001097B1CD3D0FFF7EBF9A0EB7F
:1012500008008742CDD8B4E7A368002BB2D1236839
:101260000390DA6803929B680393039BAAE702202A
:10127000A8E70220ACE72DE9F3411E464368B3F529
:10128000827F04460D4690460CD1836853B90423EF
:1012900080F85130134600960A46FFF7F0FE02B080
:1012A000BDE8F08194F85030012B00F081800123DB
:1012B00084F85030FFF7B6F9074694F85100C0B2F1
:1012C000012873D1002D58D0B8F1000F55D0042358
:1012D00084F85130002363652363A4F83E80A3861D
:1012E000E38623646364A368A563B3F5004F2368B2
:1012F000A4F83C8002BF1A6822F480421A601A687F
:1013000052065EBF1A6842F040021A60E368CBB131
:10131000E38F9BB2D3B123689A68D2073CD5DB68D0
:1013200025F8023BE38F013B9BB2E387F0E723689C
:101330009A68D0071FD51B7B05F8013BE38F013B63
:101340009BB2E387E38F9BB2002BF0D16368B3F5C8
:10135000827F0BD1A368B3F5004F02D0B3F5806F45
:1013600004D12268136823F040031360606D0030DD
:1013700018BF012001E03EB90320012384F8513059
:10138000002384F850308AE7711CDBD0FFF74AF95C
:10139000C01B8642D6D8EFE7002EEDD0731CB7D025
:1013A000FFF740F9C01B8642B2D8E5E70220E4E728
:1013B000022074E70368DA6822F49072DA605A69EE
:1013C00022F001025A61202380F83A307047000071
:1013D0002DE9F0470668C2683369C16923F44053B8
:1013E00013433361044683680069F268034360690C
:1013F00022F41642034322F00C020B431343F36022
:101400007369A26923F440731343B1F5004F73610C
:101410007A4B7CD19E4203D003F580639E4244D137
:10142000FFF7E0FC192505FB00F360684FF0640945
:101430004000B3FBF0F3B3FBF9F34FEA0318FFF7F7
:10144000D1FC636868435B00B0FBF3F7FFF7CAFCAD
:10145000636868435B00B0FBF3F3B3FBF9F309FB8C
:101460001373DB003233B3FBF9F35B0003F4F8775B
:10147000FFF7B8FC626868435200B0FBF2FAFFF76E
:10148000B1FC636868435B00B0FBF3F3B3FBF9F3B3
:1014900009FB13A3DB003233B3FBF9F303F00703BB
:1014A00043443B44B360BDE8F087FFF78BFC19254C
:1014B00005FB00F360684FF064094000B3FBF0F3F4
:1014C000B3FBF9F34FEA0318FFF77CFC636868434A
:1014D0005B00B0FBF3F7FFF775FC636868435B00E4
:1014E000B0FBF3F3B3FBF9F309FB1373DB00323307
:1014F000B3FBF9F35B0003F4F877FFF763FC626872
:1015000068435200B0FBF2FAFFF75CFCB9E79E4279
:1015100002D03B4B9E4240D1FFF764FC676819251F
:101520004FF0640905FB00F3BF00B3FBF7F3B3FB17
:10153000F9F31F01FFF756FC636868439B00B0FB9B
:10154000F3F8FFF74FFC636868439B00B0FBF3F3CD
:10155000B3FBF9F309FB13831B013233B3FBF9F33C
:1015600003F0F008FFF73EFC626868439200B0FBAE
:10157000F2FAFFF737FC636868439B00B0FBF3F3B4
:10158000B3FBF9F309FB13A31B013233B3FBF9F3EC
:1015900003F00F0343EA080383E7FFF713FC6768D0
:1015A00019254FF0640905FB00F3BF00B3FBF7F307
:1015B000B3FBF9F31F01FFF705FC636868439B0069
:1015C000B0FBF3F8FFF7FEFB636868439B00B0FBDA
:1015D000F3F3B3FBF9F309FB13831B013233B3FBC2
:1015E000F9F303F0F008FFF7EDFB6268684392003F
:1015F000B0FBF2FAFFF7E6FBBDE700BF00100140C9
:1016000000140140F8B504460E4617461D462168F1
:101610000B6836EA030301D10020F8BD6B1CF7D03C
:1016200095B92368DA6822F4D072DA605A6922F038
:1016300001025A61202384F8393084F83A300023BB
:1016400084F838300320F8BDFEF7ECFFC01B85425C
:10165000DDD2E6E710B5044640B390F8393003F028
:10166000FF021BB980F8382000F06CFC22682423AC
:1016700084F83930D36823F40053D3602046FFF751
:10168000A7FE23681A6922F490421A615A6922F06F
:101690002A025A61DA6842F40052DA6000202023FC
:1016A000E06384F8393084F83A3010BD012010BD71
:1016B0002DE9F0411F4690F83930202B04460D46A5
:1016C00090464FD100294AD0002A48D090F83830AF
:1016D000012B47D0012380F838300023C363212336
:1016E00080F83930FEF79EFFA4F824800646A4F85F
:1016F0002680E38C9BB26BB93B46324640212046A4
:10170000FFF780FFB0B9202384F8393084F838001F
:10171000BDE8F081E38C013B9BB2E384A368B3F5A1
:10172000805F32463B464FF0800120460ED1FFF7E6
:1017300069FF10B10320BDE8F0812B882268C3F354
:1017400008035360236943B90235D2E7FFF75AFF14
:101750000028EFD123682A785A600135C9E70120B3
:10176000BDE8F0810220BDE8F0817047704790F835
:101770003A30222B10B532D1836801690268B3F583
:10178000805F836A1FD15268C9B9C2F3080223F887
:10179000022B8362C48D013CA4B2C4856CB903687A
:1017A000DA6822F49072DA605A6922F001025A6112
:1017B000202380F83A30FFF7D9FF002010BDD2B2C5
:1017C00023F8012BE5E721B9591C526881621A7090
:1017D000E0E75268591C816202F07F02F7E70220BD
:1017E00010BD704703681A68D96870B516070446BB
:1017F0005D6907D196065AD58D0658D5BDE870406B
:10180000FFF7B5BF15F0010502D111F4907F4ED05E
:10181000D30705D5CE0542BFE36B43F00103E36375
:10182000500704D51DB1E36B43F00203E363930754
:1018300004D51DB1E36B43F00403E363160704D53D
:101840001DB1E36B43F00803E363E36B002B66D049
:10185000950604D5880602D52046FFF788FF236841
:101860005D69E26B1107204602D415F040051AD0DD
:10187000FFF7A0FD23685A69520610D55A69606BBC
:1018800022F040025A6150B1254B0365FEF74CFF30
:10189000002844D0606BBDE87040036D18472046B7
:1018A000FFF79FFF70BDFFF79CFFE56370BD160655
:1018B00027D50D0625D594F83920212A2FD1A268E5
:1018C000B2F5805F226A17D11188C1F3080159600F
:1018D000216979B902322262E28C013A92B2E28441
:1018E000EAB9DA6822F08002DA60DA6842F040028F
:1018F000DA6070BD0132EEE7511C216212785A6045
:10190000EAE750060BD54A0609D5DA6822F040020C
:10191000DA60202384F839302046FFF726FF70BDB7
:101920002519000808B5806B0023C385C384FFF721
:1019300058FF08BD2DE9F34102AC0F4D04F8010D2D
:101940000E4E0F469046284600220821FEF7DEFF85
:1019500021460A2301223046FFF7E8FA0A234246CD
:1019600039463046FFF7E2FA012208212846FEF701
:10197000CDFF02B0BDE8F08100100240A8000020B9
:1019800073B502AD60F07F0005F8040D14461348EE
:1019900000220E460821FEF7B9FF0A23012229463C
:1019A0000F48FFF7C3FA0A23224629460C48FFF7DF
:1019B00062FC012208210948FEF7A8FF04F0030495
:1019C0000023DAB2A24203F1010301DB02B070BDD1
:1019D00002A9114411F8041CB154F2E700100240AE
:1019E000A800002037B50C4658220146234800F0D5
:1019F000ABFBE378227802AD22F00F0203F007037D
:101A0000134305F8013D012229462020FFF792FFEC
:101A1000A378627823F03F0302F03802134329468B
:101A2000012224208DF80730FFF784FF23793BB192
:101A300088230122294623208DF80730FFF77AFFFB
:101A40006378102B16D009D873B1082B10D001225F
:101A500008210B48FEF75AFF03B030BD182B0BD0FE
:101A6000202BF4D1074A00E0074A084B1A60EEE742
:101A7000074AFAE7074AF8E7074AF6E7A80000200E
:101A80000010024048E13A3F8FC2753D140000202B
:101A90008FC2F53DEC51383E8FC2753E73B50222C0
:101AA000064601A92820FFF76BFF9DF805309DF839
:101AB000045001A902222A2005EB0325FFF760FF4D
:101AC0009DF805309DF80440022201A92C2004EB6A
:101AD0000324FFF755FF9DF805209DF804302DB233
:101AE00024B203EB0223304635807480B38002B009
:101AF00070BD000000B58BB005A8FFF7CFFF214BEC
:101B00009FED210AD3ED006ABDF9163007EE103AB9
:101B10001E4BB8EEC77AD3ED007A1D4B27EE267A1E
:101B200093ED006ABDF91830F0EE400AE7EE270A9F
:101B300007EE103A174BB8EEC77AD3ED007A164B82
:101B400027EE267AB0EE401AA7EE271A93ED007A18
:101B5000BDF9143007EE903A104BF8EEE77A70EECC
:101B6000C60A67EEA67AD3ED006A0D4BA7EEA60A69
:101B7000D3ED007A31EE471A30EE670A0BB05DF80C
:101B800004FB00BF14000020000000000C00002037
:101B9000A000002010000020A40000200800002069
:101BA0009C00002037B50446FEF73CFD05460122A7
:101BB0000DF107012720FFF7E3FE9DF807305B07D3
:101BC00004D1FEF72FFD401BA042F0D39DF8070083
:101BD00010F0070018BF012003B030BD30B595B03C
:101BE0003022002108A800F0BAFA0021142203A82C
:101BF00000F0B5FA00241C4B01941A6C42F080529C
:101C00001A641B6C03F080530193019B174B0294E1
:101C10001A6842F480421A601B680F9403F48043F0
:101C20000293029B01230B9310230C930823109320
:101C30003223119304230225129308A80723139338
:101C400008950E95FEF774FE0F2303934FF4A053EF
:101C5000069321464FF4805303A8049505940793F7
:101C6000FFF716F815B030BD003802400070004094
:101C70002DE9F0412DED028B90B0FEF7ADFCFFF7A2
:101C8000ADFF142200210BA8002400F068FA744B69
:101C900001941A6B734842F010021A631A6B02F037
:101CA00010020192019A02941A6B42F001021A6327
:101CB0001A6B02F001020292029A03941A6B42F02C
:101CC00002021A631A6B02F002020392039A04944E
:101CD0001A6B42F008021A631B6B03F008030493AB
:101CE00022460821049BFEF711FE22464FF4704164
:101CF0005D48FEF70BFE012508260BA959480B96F7
:101D00000C950D940E94FEF721FD0BA957480B95E9
:101D10000C940D94FEF71AFD4FF470430BA9524832
:101D20000B930C950D940E94FEF710FD504B4D48FF
:101D30000C930BA90B950D94FEF708FD2146224646
:101D40000620FEF79BFC0620FEF7CCFC494D4A4AD4
:101D5000AC604FF4827385E80C004FF40073AB6104
:101D60001023EB6128460A23EB62EC602C616C6166
:101D70002C626C62AC62FFF79CF84048404B846078
:101D80000C274FF4E13880E808014761C460046122
:101D90008461C461FFF75EFC3A483B4B476180E8D1
:101DA00008018460C46004618461C461FFF752FC6F
:101DB00030238DF81430C0238DF8163028460723C1
:101DC00005A98DF815608DF817308DF81840FFF7CC
:101DD00009FE2E4D2E4E2F4F4FF47A70FFF7E2FE84
:101DE0000028F9D0FFF786FEFDEEC07ABDEEE08A4E
:101DF00017EE902A314607A885ED000AC5ED010AC5
:101E000085ED021A00F0B4F918EE102A31460BA83D
:101E100000F0AEF9394607A800F0CEF939460BA814
:101E200000F0CAF96CB90BA8FEF7D2F9052382B20B
:101E30000BA91448FFF73CFC0A20FEF7F9FB01242C
:101E4000CAE707A8FEF7C4F9052382B207A90B4821
:101E5000FFF72EFC0A20FEF7EBFB0024BCE700BFD7
:101E60000038024000100240000C02400000024016
:101E7000000011105C01002000300140B40100207E
:101E800000440040100100200048004050010020A4
:101E9000E4290008E729000807B50E4B002100914E
:101EA0005A6C42F480425A645A6C02F480420092A6
:101EB000009A01911A6C42F080521A641B6C03F074
:101EC000805301930720019BFEF7C6FB03B05DF82A
:101ED00004FB00BF0038024010B5044688B014224D
:101EE000002103A800F03BF92268144B9A4222D14A
:101EF00003F58433002101915A6C114842F4805259
:101F00005A645A6C02F480520192019A02911A6B3F
:101F100042F001021A631B6B03F001030293029B60
:101F2000E0230393022304930323069303A90523C9
:101F30000793FEF70BFC08B010BD00BF0030014056
:101F40000000024010B514228AB0044600210DEBB7
:101F5000020000F004F923682F4A93422DD12F4B41
:101F60002F48002401941A6C42F400321A641A6C4F
:101F700002F400320192019A02941A6B42F00102BB
:101F80001A631B6B03F001030293029B0C2305935E
:101F900002230693012307930323089305A907232C
:101FA0000993FEF7D3FB262022462146FEF766FB67
:101FB0002620FEF797FB0AB010BD1A4A9342FAD1C9
:101FC000164B1948002403941A6C42F480221A64B8
:101FD0001A6C02F480220392039A04941A6B42F062
:101FE00002021A631B6B03F002030493049B4FF479
:101FF0004063059302230693012307930323089369
:1020000005A907230993FEF7A1FB272022462146B5
:10201000FEF734FB2720CCE70044004000380240A4
:102020000000024000480040000402407047FEE704
:10203000FEE7FEE7FEE7704770477047FEF7E6BA37
:102040000120FEF769BC00000148FFF7CBBB00BFD1
:10205000B40100200148FFF7C5BB00BF10010020FC
:102060000F49D1F8883043F47003C1F888300D4B24
:102070001A68002042F001021A6098601A6822F083
:10208000847222F480321A60074A5A601A6822F475
:1020900080221A60D8604FF000638B60704700BFE9
:1020A00000ED00E00038024010300024DFF834D0AA
:1020B000002103E00C4B5B58435004310B480C4BA0
:1020C00042189A42F6D30B4A02E0002342F8043B3E
:1020D000094B9A42F9D3FFF7C3FF00F011F8FFF75D
:1020E000C7FD704700000220442A000800000020BD
:1020F0008000002080000020F8010020FEE70000A2
:1021000070B50D4E0D4CA41BA4100025A54209D19D
:102110000B4E0C4C00F05AFCA41BA4100025A54249
:1021200005D170BD56F8253098470135EEE756F8D1
:10213000253098470135F2E73C2A00083C2A000880
:102140003C2A0008402A000810B5431E0A44914268
:1021500000D110BD11F8014B03F8014FF7E702441D
:102160000346934200D1704703F8011BF9E70000D2
:102170000EB400B59CB04FF402711DABADF8141055
:10218000029006906FF000410A48049107914FF6C3
:10219000FF7153F8042BADF816100068019302A9E3
:1021A00000F074F8029B00221A701CB05DF804EB7A
:1021B00003B070471C00002010B5024613460132E0
:1021C0001C78002CFAD1013B11F8012B03F8012FE8
:1021D000002AF9D110BD2DE9F0478E689E42824653
:1021E0000C469146984635D88A8912F4906F31D0C2
:1021F000256809696F1A6569022305EB450595FB9A
:10220000F3F508F101033B449D4238BF1D465305D9
:1022100031D5294600F02CFB064650B90C23CAF8EC
:102220000030A38943F04003A3814FF0FF30BDE8A5
:10223000F0873A462169FFF787FFA38923F490636B
:1022400043F08003A381266165613E44ED1B266057
:10225000A5604646464528BF464632464946206860
:1022600000F09EFAA3689B1BA36023681E442660AF
:102270000020BDE8F0872A4600F058FB06460028FB
:10228000E1D12169504600F0A5FAC7E72DE9F04FEA
:102290009DB0804603938B891C060D4616460FD5CC
:1022A0000B696BB9402100F0E3FA2860286128B976
:1022B0000C23C8F800304FF0FF30C5E040236B61BD
:1022C0000023099320238DF8293030238DF82A30FC
:1022D0004FF0010B37463C4614F8013B002B3CD134
:1022E000B7EB060A0BD05346324629464046FFF765
:1022F00072FF013000F0A380099B534409933B789F
:10230000002B00F09C8000234FF0FF3204930793D2
:10231000059206938DF853301A9305222178504880
:10232000FDF75EFF671C049BD8B9D90644BF202285
:102330008DF853201A0744BF2B228DF853202278A2
:102340002A2A16D0079A00210A20274601343B7812
:10235000303B092B51D9C9B111E0252BC0D02746FC
:10236000B9E73F4A801A0BFA00F0184304903C4644
:10237000D3E7039A111D12680391002A01DB07922B
:1023800004E0524243F00203079204933B782E2B61
:102390000ED17B782A2B07F1010132D1039B1A1D44
:1023A0001B680392002BB8BF4FF0FF330237059331
:1023B0002C4C397803222046FDF712FF38B1402318
:1023C000001B03FA00F0049B0343049301373978A0
:1023D00025488DF8281006227E1CFDF701FF0028F5
:1023E00035D0224BFBB9039B073323F00703083397
:1023F0000393099B4B4409936CE700FB02320121D4
:10240000A3E70023059318460A240F4601313A78C2
:10241000303A092A03D9002BCAD00590C8E704FB3B
:1024200000200123F1E703AB00932A46104B04A9D7
:102430004046AFF30080B0F1FF3F8146D9D1AB8970
:102440005B063FF538AF09981DB0BDE8F08F03ABD0
:1024500000932A46064B04A9404600F081F8EAE7BB
:10246000012A0008072A00080B2A000800000000C3
:10247000D72100082DE9F04791461F468A680B696D
:10248000DDF820809342B8BF1346C9F8003091F8B8
:10249000432006460C4612B10133C9F800302368C8
:1024A000990642BFD9F800300233C9F800302568D8
:1024B00015F0060507D104F1190AE368D9F80020E0
:1024C0009B1A9D4229DB94F843302268003318BFE1
:1024D000012392062ED404F1430239463046C04708
:1024E000013021D02368E568D9F8002003F0060305
:1024F000042B08BFAD1AA36822690CBF25EAE57555
:1025000000259342C4BF9B1AED184FF000091A34FE
:102510004D451BD10020BDE8F087012352463946C6
:102520003046C047013003D14FF0FF30BDE8F0879F
:102530000135C2E7E1185A1C302081F843002244DB
:1025400094F8451082F843100233C4E70123224671
:1025500039463046C0470130E6D009F10109D7E7D6
:102560002DE9F04317460A7E85B06E2A9846064646
:102570000C460C9B01F1430E00F0BC801AD8632A74
:102580002ED00AD8002A00F0C880582A00F08A808D
:1025900004F1420584F842202AE0642A01D0692A25
:1025A000F6D121681A6811F0800F23D0111D19602F
:1025B000136827E0732A00F0B48008D86F2A2AD065
:1025C000702AE5D10A6842F020020A6003E0752A09
:1025D00021D0782ADCD1782284F845206E4964E045
:1025E0001A6801F14205111D1960136884F8423020
:1025F0000123A3E011F0400F02F104011960D7D0CC
:10260000B2F90030002B03DA2D225B4284F843201C
:1026100062490A2217E02068196810F0800F03D081
:10262000081D18600B6806E010F0400F01F104006F
:102630001860F7D00B8859496F2A14BF0A22082264
:10264000002084F843006568A560002DC0F29C80DE
:10265000206820F004002060002B3FD1002D40F0C6
:1026600095807546082A0BD12368DA0708D52369B7
:1026700062689A42DEBF302305F8013C05F1FF3560
:10268000AEEB05032361CDF800803B4603AA21464B
:102690003046FFF7EFFE013055D14FF0FF3005B067
:1026A000BDE8F08381F845203C492268186812F0A3
:1026B000800F00F104051D6001D0036802E055069B
:1026C000FBD50388D00744BF42F0200222601BB92B
:1026D000226822F0200222601022B1E77546B3FB87
:1026E000F2F002FB1033CB5C05F8013D03460028F5
:1026F000F5D1B7E708681A68496910F0800F04D06F
:10270000101D18601368196007E010F0400F02F107
:10271000040018601368F6D0198000232361754601
:10272000B1E71A68111D1960156862680021284612
:10273000FDF756FD08B1401B60606368236100230C
:1027400084F843309FE723692A4639463046C0471C
:102750000130A2D023689B0707D5002504F1190991
:10276000E368039A9B1A9D4205DBE068039B98424D
:10277000B8BF184693E701234A4639463046C0475A
:1027800001308AD00135EBE7002BA7D10B7884F814
:10279000423004F1420565E7232A0008122A0008A6
:1027A000884210B501EB020303D8421E99420CD1B6
:1027B00010BD9842F9D28118D21AD34200D110BD6F
:1027C00013F8014D01F8014DF7E711F8014B02F83C
:1027D000014FEBE738B50546002945D051F8043CD8
:1027E0000C1F002BB8BFE41800F0D6F81F4A13687E
:1027F000104633B9636014602846BDE8384000F0E5
:10280000CCB8A3420CD921686218934204BF1A685D
:102810005B68636004BF521822600460ECE71346F3
:102820005A680AB1A242FAD919685818A0420BD1C5
:1028300020680144581882421960DDD1106852683E
:102840005A6001441960D7E702D90C232B60D3E703
:10285000206821188A4204BF11685268626004BF70
:10286000091821605C60C7E738BD00BF0001002087
:1028700070B5CD1C25F0030508350C2D38BF0C258F
:10288000002D064601DBA94203D90C23336000204A
:1028900070BD00F081F8234A1468214691B9224C9A
:1028A00023681BB9304600F067F82060294630469F
:1028B00000F062F8431C26D10C233360304600F050
:1028C0006CF8E4E70B685B1B1AD40B2B0FD90B6079
:1028D000CD50CC18304600F060F804F10B00231DF9
:1028E00020F00700C31A1BD05A42E25070BD8C4240
:1028F0000DBF63684B686360136018BF0C46E9E75F
:102900000C464968CAE7C41C24F00304A04205D061
:10291000211A304600F030F80130CDD02560D9E7DB
:1029200070BD00BF0001002004010020F8B507467B
:1029300014460E4621B91146BDE8F840FFF798BF8E
:1029400022B9FFF747FF25462846F8BD00F026F8D4
:1029500084420FD921463846FFF78AFF05460028F2
:10296000F2D031462246FFF7EFFB31463846FFF7FB
:1029700031FFE9E73546E7E738B5064C0023054661
:102980000846236000F014F8431C02D1236803B109
:102990002B6038BDF40100207047704751F8040CDB
:1029A0000028A0F10400BCBF0B58C01870470000FD
:1029B000044B1968024609B90349196018680244B2
:1029C0001A60704708010020F8010020F8B500BF28
:1029D000F8BC08BC9E467047F8B500BFF8BC08BC00
:0429E0009E46704758
:1029E4002564000A0000000000000000000102034A
:1029F40004060708090000000001020304232D3027
:102A04002B2000686C4C00656667454647003031F2
:102A14003233343536373839414243444546003041
:102A24003132333435363738396162636465660070
:082A34007CD8FF7F01000000C7
:042A3C00B5010008D8
:042A400091010008F8
:102A440001000000100000000000803F0000803FF3
:102A54000000803F8FC2753D0024F4002000002058
:102A64000000000000000000000000000000000062
:102A74000000000000000000000000000000000052
:102A84000000000000000000000000000000000042
:102A94000000000000000000000000000000000032
:102AA4000000000000000000000000000000000022
:102AB4000000000000000000000000000000000012
:04000005080020AD22
:00000001FF
